:03000000020232C7
:0C02320078FFE4F6D8FD758128020279FF
:03001F00011600C7
:030023000204983C
:0D049800C0E0C0D075D000C000C006C00795
:1004A500C298AF99E50830E11CC3E5166480948CC9
:1004B5005019AE16051674092EF8A60774092516E7
:0B04C500F876008006BF3A03430802EF
:0B04D000D007D006D000D0D0D0E03222
:10000300D2ACD2AF75985075BA6075BE30E4F5BF07
:0800130075BD03C299C29822D9
:1005A900E4F521F522F517F518F519531AFE531A32
:1005B900FD531AFB531AF7531AEF531ADF531ABF95
:0105C900220F
:04001B005308FD2267
:1005F7007584FFE4F5854391C053923F7580FF43AF
:0306070090C0227E
:10034100EE705FEFB40700505990035025E07361E0
:100351005E61686172617C61866190619A5384FE1D
:100361004385015380FE225384FD4385025380FD62
:10037100225384FB4385045380FB225384F7438536
:10038100085380F7225384BF4385405380BF2253D3
:10039100847F43858053807F2253917F4392805392
:0303A100907F2228
:1003A400EE705FEFB4070050599003B325E073611A
:1003B400C161CB61D561DF61E961F361FD5384FE05
:1003C400438501438001225384FD43850243800217
:1003D400225384FB438504438004225384F74385DA
:1003E40008438008225384BF4385404380402253FE
:1003F400847F4385804380802253917F439280434E
:03040400908022C3
:10057D001205F7EF6D7002EE6C6020C3EF9407EE7D
:10058D00648094805015C3ED9407EC648094805082
:0C059D000A120341AF05AE041203A422B1
:03051400FF7D0464
:10051700A907AF05AE041205F7E96028EF6B700273
:10052700EE6A6020C3EF9407EE648094805015C391
:10053700EB9407EA64809480500A120341AF03AE3C
:05054700021203A422D2
:10002600E5175401FF7B017A00E4FDFC120517E594
:10003600175402FF0B120517E5175404FFE4FB7D66
:1000460003120517E5175408FF0D120517E5175497
:1000560010FF7B03E4FD120517E5175420FFE4FBB0
:100066000D120517E5175440FF0D120517E5175435
:10007600807B05120514E5185401FF7B027D0112F1
:100086000517E5185402FF0B120517E51854047BF3
:1000960001120514E5185408FF7B057D01120517AA
:1000A600E5185410FF1B120517E5185420FF7B01B5
:1000B6000D120517E5185440FF0D120517E51854E3
:1000C60080FF7B051D120517E5195401FF7B037D93
:1000D60004120517E5195402FF0B7D02120517E5F8
:1000E600195404FF0D120517E5195408FFE4FB7DAA
:1000F60005120517E5195410FF7B02120517E519BD
:100106005420FF7D03120517E5195440FF0D120513
:1001160017E5195480FF0B7D02120517E51A5401E5
:10012600FF7D05120517AF1AEF13135401FF7B0568
:100136007D03120517AF1AEFC3135401FF1B7D058C
:10014600120517AF1AEF1313135401FF0B0D120507
:1001560017AF1AEFC45401FF0B1D120517AF1AEFA4
:10016600C4135401FF1D120517AF1AEFC41313541D
:0901760001FF7B047D0602051760
:1005E1001204526010F5993099FDC299740129F9EC
:0505F100E43AFA80EB82
:0105F60022E2
:0E060A00E4FFFE0FBF00010EEF64644E70F5BA
:0106180022BF
:06017F008B248A2589266D
:10018500E4F527F528F527F528AB24AA25A9268522
:10019500288285278312046BFFC394304014EFD364
:1001A5009439500E0528E528700205276403452774
:1001B50070D7E528152870021527C3E527648094B4
:1001C50080401DAB24AA25A926E5281528AE277051
:1001D500021527F5828E8312046BFF1204078F190F
:1001E500C3E52764809480401DAB24AA25A926E594
:1001F500281528AE2770021527F5828E8312046B09
:10020500FF1204078F18C3E52764809480401DAB57
:1002150024AA25A926E5281528AE2770021527F555
:0C022500828E8312046BFF1204078F17F7
:0102310022AA
:1002BE00D3E516648094804079E50924BA6033242E
:1002CE0004706FC3E5166480948A4066AD0BAF0C64
:1002DE001205CA8F17AD0DAF0E1205CA8F18AD0FCE
:1002EE00AF101205CA8F19AD11AF121205CA8F1AAF
:0202FE00803A44
:100300007B007A00790B8B218A228923531AFEE421
:10031000F519F518F517120452FFB42D05431A010B
:100320008004EFB42B0B74012523F523E43522F56B
:1003300022AB21AA22A92312017FE4F5165308FD5E
:01034000229A
:10054C00E4F51BF51CF51DF51EF51FF5207584FC57
:10055C0075850375B1FFF5B27591FEF5927580FD49
:10056C001200031205A912001B1202BE12002680F3
:01057C00F886
:1004DB00E4FEEFC39430400CEFD394395006EF2475
:1004EB00D0FE8022EFC39461400CEFD3946650068C
:1004FB00EF24A9FE8010EFC39441400AEFD394463A
:08050B005004EF24C9FEAF0605
:0105130022C5
:1005CA00AE05AD07AF061204DBEFC454F0FCAF056D
:0705DA001204DBEF4CFF22CD
:10040700EF24D2B40C00504290041925E0500205A5
:100417008373814F8151813181348137813A813DA5
:100427008140814381468149814C7F3F227F06225B
:100437007F5B227F4F227F66227F6D227F7D227F17
:0B04470007227F7F227F6F227F802230
:10023E0002054CE493A3F8E493A34003F68001F285
:10024E0008DFF48029E493A3F85407240CC8C333C1
:10025E00C4540F4420C8834004F456800146F6DF90
:10026E00E4800B010204081020408090001FE47E01
:10027E00019360BCA3FF543F30E509541FFEE49385
:10028E00A360010ECF54C025E060A840B8E493A34C
:10029E00FAE493A3F8E493A3C8C582C8CAC583CA77
:1002AE00F0A3C8C582C8CAC583CADFE9DEE780BE2F
:0100220000DD
:10045200BB010689828A83E0225002E722BBFE02A8
:09046200E32289828A83E49322DB
:10046B00BB010CE58229F582E5833AF583E0225046
:10047B0006E92582F8E622BBFE06E92582F8E22290
:0D048B00E58229F582E5833AF583E49322AA
:00000001FF
